{
    "contractName": "SupplyChain",
    "abi": [
        {
            "anonymous": false,
            "inputs": [
                {
                    "indexed": false,
                    "internalType": "uint32",
                    "name": "productId",
                    "type": "uint32"
                }
            ],
            "name": "TransferOwnership",
            "type": "event"
        },
        {
            "inputs": [
                {
                    "internalType": "string",
                    "name": "_username",
                    "type": "string"
                },
                {
                    "internalType": "string",
                    "name": "_password",
                    "type": "string"
                },
                {
                    "internalType": "string",
                    "name": "_participantType",
                    "type": "string"
                },
                {
                    "internalType": "address",
                    "name": "_participantAddress",
                    "type": "address"
                }
            ],
            "name": "addParticipant",
            "outputs": [
                {
                    "internalType": "uint32",
                    "name": "_userId",
                    "type": "uint32"
                }
            ],
            "stateMutability": "nonpayable",
            "type": "function"
        },
        {
            "inputs": [
                {
                    "internalType": "uint32",
                    "name": "_ownerId",
                    "type": "uint32"
                },
                {
                    "internalType": "string",
                    "name": "_modelNumber",
                    "type": "string"
                },
                {
                    "internalType": "string",
                    "name": "_partNumber",
                    "type": "string"
                },
                {
                    "internalType": "string",
                    "name": "_serialNumber",
                    "type": "string"
                },
                {
                    "internalType": "uint32",
                    "name": "_cost",
                    "type": "uint32"
                }
            ],
            "name": "addProduct",
            "outputs": [
                {
                    "internalType": "uint32",
                    "name": "__productId",
                    "type": "uint32"
                }
            ],
            "stateMutability": "nonpayable",
            "type": "function"
        },
        {
            "inputs": [
                {
                    "internalType": "uint32",
                    "name": "_userId",
                    "type": "uint32"
                },
                {
                    "internalType": "string",
                    "name": "_username",
                    "type": "string"
                },
                {
                    "internalType": "string",
                    "name": "_userType",
                    "type": "string"
                },
                {
                    "internalType": "string",
                    "name": "_password",
                    "type": "string"
                }
            ],
            "name": "authParticipant",
            "outputs": [
                {
                    "internalType": "bool",
                    "name": "",
                    "type": "bool"
                }
            ],
            "stateMutability": "view",
            "type": "function"
        },
        {
            "inputs": [
                {
                    "internalType": "uint32",
                    "name": "_ownershipId",
                    "type": "uint32"
                }
            ],
            "name": "getOwnership",
            "outputs": [
                {
                    "components": [
                        {
                            "internalType": "uint32",
                            "name": "productId",
                            "type": "uint32"
                        },
                        {
                            "internalType": "uint32",
                            "name": "ownerId",
                            "type": "uint32"
                        },
                        {
                            "internalType": "uint256",
                            "name": "trxTimestamp",
                            "type": "uint256"
                        },
                        {
                            "internalType": "address",
                            "name": "productOwner",
                            "type": "address"
                        }
                    ],
                    "internalType": "struct SupplyChain.ownership",
                    "name": "",
                    "type": "tuple"
                }
            ],
            "stateMutability": "view",
            "type": "function"
        },
        {
            "inputs": [
                {
                    "internalType": "uint32",
                    "name": "_productId",
                    "type": "uint32"
                }
            ],
            "name": "getParticipant",
            "outputs": [
                {
                    "internalType": "string",
                    "name": "",
                    "type": "string"
                },
                {
                    "internalType": "address",
                    "name": "",
                    "type": "address"
                },
                {
                    "internalType": "string",
                    "name": "",
                    "type": "string"
                }
            ],
            "stateMutability": "view",
            "type": "function"
        },
        {
            "inputs": [
                {
                    "internalType": "uint32",
                    "name": "_productId",
                    "type": "uint32"
                }
            ],
            "name": "getProduct",
            "outputs": [
                {
                    "components": [
                        {
                            "internalType": "string",
                            "name": "modelNumber",
                            "type": "string"
                        },
                        {
                            "internalType": "string",
                            "name": "partNumber",
                            "type": "string"
                        },
                        {
                            "internalType": "string",
                            "name": "serialNumber",
                            "type": "string"
                        },
                        {
                            "internalType": "address",
                            "name": "productOwner",
                            "type": "address"
                        },
                        {
                            "internalType": "uint32",
                            "name": "cost",
                            "type": "uint32"
                        },
                        {
                            "internalType": "uint256",
                            "name": "mfgTimestamp",
                            "type": "uint256"
                        }
                    ],
                    "internalType": "struct SupplyChain.product",
                    "name": "",
                    "type": "tuple"
                }
            ],
            "stateMutability": "view",
            "type": "function"
        },
        {
            "inputs": [
                {
                    "internalType": "uint32",
                    "name": "_productId",
                    "type": "uint32"
                }
            ],
            "name": "getProvenance",
            "outputs": [
                {
                    "internalType": "uint32[]",
                    "name": "",
                    "type": "uint32[]"
                }
            ],
            "stateMutability": "view",
            "type": "function"
        },
        {
            "inputs": [
                {
                    "internalType": "uint32",
                    "name": "_userId1",
                    "type": "uint32"
                },
                {
                    "internalType": "uint32",
                    "name": "_userId2",
                    "type": "uint32"
                },
                {
                    "internalType": "uint32",
                    "name": "_productId",
                    "type": "uint32"
                }
            ],
            "name": "newOwner",
            "outputs": [
                {
                    "internalType": "bool",
                    "name": "",
                    "type": "bool"
                }
            ],
            "stateMutability": "nonpayable",
            "type": "function"
        },
        {
            "inputs": [
                {
                    "internalType": "uint32",
                    "name": "",
                    "type": "uint32"
                }
            ],
            "name": "ownerships",
            "outputs": [
                {
                    "internalType": "uint32",
                    "name": "productId",
                    "type": "uint32"
                },
                {
                    "internalType": "uint32",
                    "name": "ownerId",
                    "type": "uint32"
                },
                {
                    "internalType": "uint256",
                    "name": "trxTimestamp",
                    "type": "uint256"
                },
                {
                    "internalType": "address",
                    "name": "productOwner",
                    "type": "address"
                }
            ],
            "stateMutability": "view",
            "type": "function"
        },
        {
            "inputs": [
                {
                    "internalType": "uint32",
                    "name": "",
                    "type": "uint32"
                }
            ],
            "name": "participants",
            "outputs": [
                {
                    "internalType": "string",
                    "name": "username",
                    "type": "string"
                },
                {
                    "internalType": "string",
                    "name": "password",
                    "type": "string"
                },
                {
                    "internalType": "string",
                    "name": "participantType",
                    "type": "string"
                },
                {
                    "internalType": "address",
                    "name": "participantAddress",
                    "type": "address"
                }
            ],
            "stateMutability": "view",
            "type": "function"
        },
        {
            "inputs": [
                {
                    "internalType": "uint32",
                    "name": "",
                    "type": "uint32"
                },
                {
                    "internalType": "uint256",
                    "name": "",
                    "type": "uint256"
                }
            ],
            "name": "productTracker",
            "outputs": [
                {
                    "internalType": "uint32",
                    "name": "",
                    "type": "uint32"
                }
            ],
            "stateMutability": "view",
            "type": "function"
        },
        {
            "inputs": [
                {
                    "internalType": "uint32",
                    "name": "",
                    "type": "uint32"
                }
            ],
            "name": "products",
            "outputs": [
                {
                    "internalType": "string",
                    "name": "modelNumber",
                    "type": "string"
                },
                {
                    "internalType": "string",
                    "name": "partNumber",
                    "type": "string"
                },
                {
                    "internalType": "string",
                    "name": "serialNumber",
                    "type": "string"
                },
                {
                    "internalType": "address",
                    "name": "productOwner",
                    "type": "address"
                },
                {
                    "internalType": "uint32",
                    "name": "cost",
                    "type": "uint32"
                },
                {
                    "internalType": "uint256",
                    "name": "mfgTimestamp",
                    "type": "uint256"
                }
            ],
            "stateMutability": "view",
            "type": "function"
        }
    ],
    "bytecode": "6080604052600080546001600160601b031916905534801561002057600080fd5b50612285806100306000396000f3fe608060405234801561001057600080fd5b50600436106100b45760003560e01c806381e156101161007157806381e1561014610174578063a638ac49146101ef578063bf712fd61461020f578063c1ffb10e14610234578063c856956514610247578063df6d23f11461026757600080fd5b806313169bed146100b95780632e9d5284146100e65780633b26a65d146101095780633c51e6a31461012b578063506321041461013e5780637d0a9ac914610151575b600080fd5b6100cc6100c7366004611c44565b610336565b60405163ffffffff90911681526020015b60405180910390f35b6100f96100f4366004611d04565b610430565b60405190151581526020016100dd565b61011c610117366004611d47565b610c98565b6040516100dd93929190611db6565b6100cc610139366004611df4565b610def565b6100cc61014c366004611e1e565b610e38565b61016461015f366004611d47565b611026565b6040516100dd9493929190611ec8565b6101be610182366004611d47565b60036020526000908152604090208054600182015460029092015463ffffffff808316936401000000009093041691906001600160a01b031684565b6040805163ffffffff9586168152949093166020850152918301526001600160a01b031660608201526080016100dd565b6102026101fd366004611d47565b6111ef565b6040516100dd9190611f1b565b61022261021d366004611d47565b611443565b6040516100dd96959493929190611fac565b6100f9610242366004612013565b611622565b61025a610255366004611d47565b61198f565b6040516100dd91906120ac565b6102ef610275366004611d47565b604080516080808201835260008083526020808401829052838501829052606093840182905263ffffffff9586168252600381529084902084519283018552805480871684526401000000009004909516908201526001840154928101929092526002909201546001600160a01b03169181019190915290565b6040516100dd9190815163ffffffff908116825260208084015190911690820152604080830151908201526060918201516001600160a01b03169181019190915260800190565b600080548190640100000000900463ffffffff16816004610356836120f6565b82546101009290920a63ffffffff818102199093169183160217909155811660009081526002602090815260409091208851929350610399929091890190611b08565b5063ffffffff8116600090815260026020908152604090912086516103c692600190920191880190611b08565b5063ffffffff8116600090815260026020818152604090922086516103f393919092019190870190611b08565b5063ffffffff8116600090815260026020526040902060030180546001600160a01b0319166001600160a01b03851617905590505b949350505050565b63ffffffff811660009081526001602052604081206003015482906001600160a01b031633146104a75760405162461bcd60e51b815260206004820181905260248201527f5265737472696374656420746f206f6e6c792070726f64756374206f776e657260448201526064015b60405180910390fd5b63ffffffff85166000908152600260205260408082208151608081019092528054829082906104d590612128565b80601f016020809104026020016040519081016040528092919081815260200182805461050190612128565b801561054e5780601f106105235761010080835404028352916020019161054e565b820191906000526020600020905b81548152906001019060200180831161053157829003601f168201915b5050505050815260200160018201805461056790612128565b80601f016020809104026020016040519081016040528092919081815260200182805461059390612128565b80156105e05780601f106105b5576101008083540402835291602001916105e0565b820191906000526020600020905b8154815290600101906020018083116105c357829003601f168201915b505050505081526020016002820180546105f990612128565b80601f016020809104026020016040519081016040528092919081815260200182805461062590612128565b80156106725780601f1061064757610100808354040283529160200191610672565b820191906000526020600020905b81548152906001019060200180831161065557829003601f168201915b5050509183525050600391909101546001600160a01b031660209182015263ffffffff871660009081526002909152604080822081516080810190925280549394509192909190829082906106c690612128565b80601f01602080910402602001604051908101604052809291908181526020018280546106f290612128565b801561073f5780601f106107145761010080835404028352916020019161073f565b820191906000526020600020905b81548152906001019060200180831161072257829003601f168201915b5050505050815260200160018201805461075890612128565b80601f016020809104026020016040519081016040528092919081815260200182805461078490612128565b80156107d15780601f106107a6576101008083540402835291602001916107d1565b820191906000526020600020905b8154815290600101906020018083116107b457829003601f168201915b505050505081526020016002820180546107ea90612128565b80601f016020809104026020016040519081016040528092919081815260200182805461081690612128565b80156108635780601f1061083857610100808354040283529160200191610863565b820191906000526020600020905b81548152906001019060200180831161084657829003601f168201915b5050509183525050600391909101546001600160a01b0316602090910152600080549192509068010000000000000000900463ffffffff168160086108a7836120f6565b91906101000a81548163ffffffff021916908363ffffffff160217905550905060006040518060400160405280600c81526020016b26b0b73ab330b1ba3ab932b960a11b815250905060006040518060400160405280600881526020016729bab8383634b2b960c11b815250905060006040518060400160405280600881526020016721b7b739bab6b2b960c11b8152509050856040015173__$985d6e6b206a37a12231a7993609dcc3b0$__633a96fdd79091856040518363ffffffff1660e01b8152600401610979929190612163565b602060405180830381865af4158015610996573d6000803e3d6000fd5b505050506040513d601f19601f820116820180604052508101906109ba9190612191565b8015610a3f57506040808601519051633a96fdd760e01b815273__$985d6e6b206a37a12231a7993609dcc3b0$__91633a96fdd7916109fe91908690600401612163565b602060405180830381865af4158015610a1b573d6000803e3d6000fd5b505050506040513d601f19601f82011682018060405250810190610a3f9190612191565b15610a5d57610a508a858b88611a24565b9750505050505050610c90565b6040808701519051633a96fdd760e01b815273__$985d6e6b206a37a12231a7993609dcc3b0$__91633a96fdd791610a9a91908690600401612163565b602060405180830381865af4158015610ab7573d6000803e3d6000fd5b505050506040513d601f19601f82011682018060405250810190610adb9190612191565b8015610b6057506040808601519051633a96fdd760e01b815273__$985d6e6b206a37a12231a7993609dcc3b0$__91633a96fdd791610b1f91908690600401612163565b602060405180830381865af4158015610b3c573d6000803e3d6000fd5b505050506040513d601f19601f82011682018060405250810190610b609190612191565b15610b7157610a508a858b88611a24565b6040808701519051633a96fdd760e01b815273__$985d6e6b206a37a12231a7993609dcc3b0$__91633a96fdd791610bae91908690600401612163565b602060405180830381865af4158015610bcb573d6000803e3d6000fd5b505050506040513d601f19601f82011682018060405250810190610bef9190612191565b8015610c7457506040808601519051633a96fdd760e01b815273__$985d6e6b206a37a12231a7993609dcc3b0$__91633a96fdd791610c3391908590600401612163565b602060405180830381865af4158015610c50573d6000803e3d6000fd5b505050506040513d601f19601f82011682018060405250810190610c749190612191565b15610c8557610a508a858b88611a24565b600097505050505050505b509392505050565b63ffffffff81166000908152600260208190526040822060038101548154606094938593926001600160a01b031691908301908390610cd690612128565b80601f0160208091040260200160405190810160405280929190818152602001828054610d0290612128565b8015610d4f5780601f10610d2457610100808354040283529160200191610d4f565b820191906000526020600020905b815481529060010190602001808311610d3257829003601f168201915b50505050509250808054610d6290612128565b80601f0160208091040260200160405190810160405280929190818152602001828054610d8e90612128565b8015610ddb5780601f10610db057610100808354040283529160200191610ddb565b820191906000526020600020905b815481529060010190602001808311610dbe57829003601f168201915b505050505090509250925092509193909250565b60046020528160005260406000208181548110610e0b57600080fd5b9060005260206000209060089182820401919006600402915091509054906101000a900463ffffffff1681565b63ffffffff8516600090815260026020818152604080842090517fcec9b8e63c868f2f7f30368f1583e7aa39ae80e163d57a859fa5a90244b28ac193610e8193920191016121b3565b6040516020818303038152906040528051906020012014610eef5760405162461bcd60e51b815260206004820152602260248201527f4f6e6c79204d616e7566616374757265722063616e206164642070726f647563604482015261747360f01b606482015260840161049e565b6000805463ffffffff168180610f04836120f6565b82546101009290920a63ffffffff818102199093169183160217909155811660009081526001602090815260409091208851929350610f47929091890190611b08565b5063ffffffff811660009081526001602081815260409092208751610f7493919092019190880190611b08565b5063ffffffff811660009081526001602090815260409091208551610fa192600290920191870190611b08565b5063ffffffff80881660009081526002602090815260408083206003908101548686168552600190935292209091018054928616600160a01b026001600160c01b03199093166001600160a01b03909216919091179190911790556110034290565b63ffffffff82166000908152600160205260409020600401559695505050505050565b60026020526000908152604090208054819061104190612128565b80601f016020809104026020016040519081016040528092919081815260200182805461106d90612128565b80156110ba5780601f1061108f576101008083540402835291602001916110ba565b820191906000526020600020905b81548152906001019060200180831161109d57829003601f168201915b5050505050908060010180546110cf90612128565b80601f01602080910402602001604051908101604052809291908181526020018280546110fb90612128565b80156111485780601f1061111d57610100808354040283529160200191611148565b820191906000526020600020905b81548152906001019060200180831161112b57829003601f168201915b50505050509080600201805461115d90612128565b80601f016020809104026020016040519081016040528092919081815260200182805461118990612128565b80156111d65780601f106111ab576101008083540402835291602001916111d6565b820191906000526020600020905b8154815290600101906020018083116111b957829003601f168201915b505050600390930154919250506001600160a01b031684565b6112376040518060c0016040528060608152602001606081526020016060815260200160006001600160a01b03168152602001600063ffffffff168152602001600081525090565b63ffffffff821660009081526001602052604090819020815160c0810190925280548290829061126690612128565b80601f016020809104026020016040519081016040528092919081815260200182805461129290612128565b80156112df5780601f106112b4576101008083540402835291602001916112df565b820191906000526020600020905b8154815290600101906020018083116112c257829003601f168201915b505050505081526020016001820180546112f890612128565b80601f016020809104026020016040519081016040528092919081815260200182805461132490612128565b80156113715780601f1061134657610100808354040283529160200191611371565b820191906000526020600020905b81548152906001019060200180831161135457829003601f168201915b5050505050815260200160028201805461138a90612128565b80601f01602080910402602001604051908101604052809291908181526020018280546113b690612128565b80156114035780601f106113d857610100808354040283529160200191611403565b820191906000526020600020905b8154815290600101906020018083116113e657829003601f168201915b505050918352505060038201546001600160a01b0381166020830152600160a01b900463ffffffff16604082015260049091015460609091015292915050565b60016020526000908152604090208054819061145e90612128565b80601f016020809104026020016040519081016040528092919081815260200182805461148a90612128565b80156114d75780601f106114ac576101008083540402835291602001916114d7565b820191906000526020600020905b8154815290600101906020018083116114ba57829003601f168201915b5050505050908060010180546114ec90612128565b80601f016020809104026020016040519081016040528092919081815260200182805461151890612128565b80156115655780601f1061153a57610100808354040283529160200191611565565b820191906000526020600020905b81548152906001019060200180831161154857829003601f168201915b50505050509080600201805461157a90612128565b80601f01602080910402602001604051908101604052809291908181526020018280546115a690612128565b80156115f35780601f106115c8576101008083540402835291602001916115f3565b820191906000526020600020905b8154815290600101906020018083116115d657829003601f168201915b50505050600383015460049093015491926001600160a01b03811692600160a01b90910463ffffffff16915086565b63ffffffff84166000908152600260208190526040822001805461164590612128565b80601f016020809104026020016040519081016040528092919081815260200182805461167190612128565b80156116be5780601f10611693576101008083540402835291602001916116be565b820191906000526020600020905b8154815290600101906020018083116116a157829003601f168201915b5050604051633a96fdd760e01b815273__$985d6e6b206a37a12231a7993609dcc3b0$__94633a96fdd794506116fb935091508790600401612163565b602060405180830381865af4158015611718573d6000803e3d6000fd5b505050506040513d601f19601f8201168201806040525081019061173c9190612191565b156119845763ffffffff85166000908152600260205260409020805461176190612128565b80601f016020809104026020016040519081016040528092919081815260200182805461178d90612128565b80156117da5780601f106117af576101008083540402835291602001916117da565b820191906000526020600020905b8154815290600101906020018083116117bd57829003601f168201915b5050604051633a96fdd760e01b815273__$985d6e6b206a37a12231a7993609dcc3b0$__94633a96fdd79450611817935091508890600401612163565b602060405180830381865af4158015611834573d6000803e3d6000fd5b505050506040513d601f19601f820116820180604052508101906118589190612191565b156119845763ffffffff85166000908152600260205260409020600101805461188090612128565b80601f01602080910402602001604051908101604052809291908181526020018280546118ac90612128565b80156118f95780601f106118ce576101008083540402835291602001916118f9565b820191906000526020600020905b8154815290600101906020018083116118dc57829003601f168201915b5050604051633a96fdd760e01b815273__$985d6e6b206a37a12231a7993609dcc3b0$__94633a96fdd79450611936935091508690600401612163565b602060405180830381865af4158015611953573d6000803e3d6000fd5b505050506040513d601f19601f820116820180604052508101906119779190612191565b1561198457506001610428565b506000949350505050565b63ffffffff8116600090815260046020908152604091829020805483518184028101840190945280845260609392830182828015611a1857602002820191906000526020600020906000905b82829054906101000a900463ffffffff1663ffffffff16815260200190600401906020826003010492830192600103820291508084116119db5790505b50505050509050919050565b63ffffffff8381166000818152600360209081526040808320805488871667ffffffffffffffff1990911681176401000000008c891602178255426001808401919091556060890151600290930180546001600160a01b0319166001600160a01b039094169390931790925580855260048085528386208054938401815586528486206008840401805460079094169091026101000a9788021990921696909502959095179094558351928352925190927fa5470ac012c6e9dc500e62b1d3de0de58db49b3ab7cfebbfb126d9abd854199b928290030190a1506001949350505050565b828054611b1490612128565b90600052602060002090601f016020900481019282611b365760008555611b7c565b82601f10611b4f57805160ff1916838001178555611b7c565b82800160010185558215611b7c579182015b82811115611b7c578251825591602001919060010190611b61565b50611b88929150611b8c565b5090565b5b80821115611b885760008155600101611b8d565b634e487b7160e01b600052604160045260246000fd5b600082601f830112611bc857600080fd5b813567ffffffffffffffff80821115611be357611be3611ba1565b604051601f8301601f19908116603f01168101908282118183101715611c0b57611c0b611ba1565b81604052838152866020858801011115611c2457600080fd5b836020870160208301376000602085830101528094505050505092915050565b60008060008060808587031215611c5a57600080fd5b843567ffffffffffffffff80821115611c7257600080fd5b611c7e88838901611bb7565b95506020870135915080821115611c9457600080fd5b611ca088838901611bb7565b94506040870135915080821115611cb657600080fd5b50611cc387828801611bb7565b92505060608501356001600160a01b0381168114611ce057600080fd5b939692955090935050565b803563ffffffff81168114611cff57600080fd5b919050565b600080600060608486031215611d1957600080fd5b611d2284611ceb565b9250611d3060208501611ceb565b9150611d3e60408501611ceb565b90509250925092565b600060208284031215611d5957600080fd5b611d6282611ceb565b9392505050565b6000815180845260005b81811015611d8f57602081850181015186830182015201611d73565b81811115611da1576000602083870101525b50601f01601f19169290920160200192915050565b606081526000611dc96060830186611d69565b6001600160a01b03851660208401528281036040840152611dea8185611d69565b9695505050505050565b60008060408385031215611e0757600080fd5b611e1083611ceb565b946020939093013593505050565b600080600080600060a08688031215611e3657600080fd5b611e3f86611ceb565b9450602086013567ffffffffffffffff80821115611e5c57600080fd5b611e6889838a01611bb7565b95506040880135915080821115611e7e57600080fd5b611e8a89838a01611bb7565b94506060880135915080821115611ea057600080fd5b50611ead88828901611bb7565b925050611ebc60808701611ceb565b90509295509295909350565b608081526000611edb6080830187611d69565b8281036020840152611eed8187611d69565b90508281036040840152611f018186611d69565b91505060018060a01b038316606083015295945050505050565b602081526000825160c06020840152611f3760e0840182611d69565b90506020840151601f1980858403016040860152611f558383611d69565b9250604086015191508085840301606086015250611f738282611d69565b91505060018060a01b03606085015116608084015263ffffffff60808501511660a084015260a084015160c08401528091505092915050565b60c081526000611fbf60c0830189611d69565b8281036020840152611fd18189611d69565b90508281036040840152611fe58188611d69565b6001600160a01b03969096166060840152505063ffffffff92909216608083015260a0909101529392505050565b6000806000806080858703121561202957600080fd5b61203285611ceb565b9350602085013567ffffffffffffffff8082111561204f57600080fd5b61205b88838901611bb7565b9450604087013591508082111561207157600080fd5b61207d88838901611bb7565b9350606087013591508082111561209357600080fd5b506120a087828801611bb7565b91505092959194509250565b6020808252825182820181905260009190848201906040850190845b818110156120ea57835163ffffffff16835292840192918401916001016120c8565b50909695505050505050565b600063ffffffff8083168181141561211e57634e487b7160e01b600052601160045260246000fd5b6001019392505050565b600181811c9082168061213c57607f821691505b6020821081141561215d57634e487b7160e01b600052602260045260246000fd5b50919050565b6040815260006121766040830185611d69565b82810360208401526121888185611d69565b95945050505050565b6000602082840312156121a357600080fd5b81518015158114611d6257600080fd5b600080835481600182811c9150808316806121cf57607f831692505b60208084108214156121ef57634e487b7160e01b86526022600452602486fd5b818015612203576001811461221457612241565b60ff19861689528489019650612241565b60008a81526020902060005b868110156122395781548b820152908501908301612220565b505084890196505b50949897505050505050505056fea264697066735822122082f138f48471805180a8732bb65a4c0715761d1eabccbce024a75f3ec28a1eac64736f6c634300080c0033",
    "sourcePath": "/Users/abrahamudele/Documents/Solidity/supply-chain/contracts/SupplyChain.sol",
    "compiler": {
        "name": "solc",
        "version": "0.8.12+commit.f00d7308"
    },
    "functionHashes": {
        "addParticipant(string,string,string,address)": "13169bed",
        "addProduct(uint32,string,string,string,uint32)": "50632104",
        "authParticipant(uint32,string,string,string)": "c1ffb10e",
        "getOwnership(uint32)": "df6d23f1",
        "getParticipant(uint32)": "3b26a65d",
        "getProduct(uint32)": "a638ac49",
        "getProvenance(uint32)": "c8569565",
        "newOwner(uint32,uint32,uint32)": "2e9d5284",
        "ownerships(uint32)": "81e15610",
        "participants(uint32)": "7d0a9ac9",
        "productTracker(uint32,uint256)": "3c51e6a3",
        "products(uint32)": "bf712fd6"
    },
    "gasEstimates": {
        "creation": {
            "codeDepositCost": "1767400",
            "executionCost": "26092",
            "totalCost": "1793492"
        },
        "external": {
            "addParticipant(string,string,string,address)": "infinite",
            "addProduct(uint32,string,string,string,uint32)": "infinite",
            "authParticipant(uint32,string,string,string)": "infinite",
            "getOwnership(uint32)": "7251",
            "getParticipant(uint32)": "infinite",
            "getProduct(uint32)": "infinite",
            "getProvenance(uint32)": "infinite",
            "newOwner(uint32,uint32,uint32)": "infinite",
            "ownerships(uint32)": "6874",
            "participants(uint32)": "infinite",
            "productTracker(uint32,uint256)": "6464",
            "products(uint32)": "infinite"
        },
        "internal": {
            "_createOwnership(uint32,uint32,uint32,struct SupplyChain.participant memory)": "infinite",
            "_currentTime()": "infinite"
        }
    }
}