{
  "contractName": "Strings",
  "abi": [
    {
      "inputs": [
        {
          "internalType": "string",
          "name": "_base",
          "type": "string"
        },
        {
          "internalType": "string",
          "name": "_value",
          "type": "string"
        }
      ],
      "name": "concat",
      "outputs": [
        {
          "internalType": "string",
          "name": "",
          "type": "string"
        }
      ],
      "stateMutability": "pure",
      "type": "function",
      "constant": true
    },
    {
      "inputs": [
        {
          "internalType": "string",
          "name": "_base",
          "type": "string"
        },
        {
          "internalType": "string",
          "name": "_value",
          "type": "string"
        }
      ],
      "name": "compare",
      "outputs": [
        {
          "internalType": "bool",
          "name": "",
          "type": "bool"
        }
      ],
      "stateMutability": "pure",
      "type": "function",
      "constant": true
    },
    {
      "inputs": [
        {
          "internalType": "string",
          "name": "_str",
          "type": "string"
        }
      ],
      "name": "reverse",
      "outputs": [
        {
          "internalType": "string",
          "name": "",
          "type": "string"
        }
      ],
      "stateMutability": "pure",
      "type": "function",
      "constant": true
    }
  ],
  "bytecode": "0x6106af610053600b82828239805160001a607314610046577f4e487b7100000000000000000000000000000000000000000000000000000000600052600060045260246000fd5b30600052607381538281f3fe730000000000000000000000000000000000000000301460806040526004361061004b5760003560e01c8063064767aa146100505780633a96fdd71461008057806389c19ddb146100b0575b600080fd5b61006a60048036038101906100659190610326565b6100e0565b604051610077919061040c565b60405180910390f35b61009a6004803603810190610095919061042e565b610226565b6040516100a791906104ca565b60405180910390f35b6100ca60048036038101906100c5919061042e565b610285565b6040516100d7919061040c565b60405180910390f35b6060600083838080601f016020809104026020016040519081016040528093929190818152602001838380828437600081840152601f19601f8201169050808301925050505050505090506000815167ffffffffffffffff811115610148576101476104e5565b5b6040519080825280601f01601f19166020018201604052801561017a5781602001600182028036833780820191505090505b509050600081905060005b8351811015610219578381815181106101a1576101a0610514565b5b602001015160f81c60f81b8260018387516101bc919061057c565b6101c6919061057c565b815181106101d7576101d6610514565b5b60200101907effffffffffffffffffffffffffffffffffffffffffffffffffffffffffffff1916908160001a9053508080610211906105b0565b915050610185565b5080935050505092915050565b6000828260405160200161023b929190610638565b604051602081830303815290604052805190602001208585604051602001610264929190610638565b60405160208183030381529060405280519060200120149050949350505050565b60608484848460405160200161029e9493929190610651565b6040516020818303038152906040529050949350505050565b600080fd5b600080fd5b600080fd5b600080fd5b600080fd5b60008083601f8401126102e6576102e56102c1565b5b8235905067ffffffffffffffff811115610303576103026102c6565b5b60208301915083600182028301111561031f5761031e6102cb565b5b9250929050565b6000806020838503121561033d5761033c6102b7565b5b600083013567ffffffffffffffff81111561035b5761035a6102bc565b5b610367858286016102d0565b92509250509250929050565b600081519050919050565b600082825260208201905092915050565b60005b838110156103ad578082015181840152602081019050610392565b838111156103bc576000848401525b50505050565b6000601f19601f8301169050919050565b60006103de82610373565b6103e8818561037e565b93506103f881856020860161038f565b610401816103c2565b840191505092915050565b6000602082019050818103600083015261042681846103d3565b905092915050565b60008060008060408587031215610448576104476102b7565b5b600085013567ffffffffffffffff811115610466576104656102bc565b5b610472878288016102d0565b9450945050602085013567ffffffffffffffff811115610495576104946102bc565b5b6104a1878288016102d0565b925092505092959194509250565b60008115159050919050565b6104c4816104af565b82525050565b60006020820190506104df60008301846104bb565b92915050565b7f4e487b7100000000000000000000000000000000000000000000000000000000600052604160045260246000fd5b7f4e487b7100000000000000000000000000000000000000000000000000000000600052603260045260246000fd5b6000819050919050565b7f4e487b7100000000000000000000000000000000000000000000000000000000600052601160045260246000fd5b600061058782610543565b915061059283610543565b9250828210156105a5576105a461054d565b5b828203905092915050565b60006105bb82610543565b91507fffffffffffffffffffffffffffffffffffffffffffffffffffffffffffffffff8214156105ee576105ed61054d565b5b600182019050919050565b600081905092915050565b82818337600083830152505050565b600061061f83856105f9565b935061062c838584610604565b82840190509392505050565b6000610645828486610613565b91508190509392505050565b600061065e828688610613565b915061066b828486610613565b91508190509594505050505056fea2646970667358221220a72e5403d28d59f29e5623b71a55c58f04074e6b468a6fa2f6fc4cdd1fcb6cdc64736f6c634300080b0033",
  "immutableReferences": {},
  "source": "// SPDX-License-Identifier: MIT\n\npragma solidity ^0.8.0;\n\n/**\n * Strings Library\n *\n * This is a simple library of string functions which make simple\n * string operations less tedious in solidity.\n *\n * Please be aware these functions can be quite gas heavy so use them only when\n * necessary not to clog the blockchain with expensive transactions.\n *\n * @author Abraham Udele <hello@abrahamudele.com>\n */\nlibrary Strings {\n    /**\n     * Returns the length of the specified string\n     *\n     * @param _base When being used for a data type this is the extended object\n     *              otherwise this is the string to be measured\n     * @return uint256 The length of the passed string\n     */\n    function length(string memory _base) internal pure returns (uint256) {\n        bytes memory _baseBytes = bytes(_base);\n        return _baseBytes.length;\n    }\n\n    /**\n     * Concat (Has high gas cost)\n     *\n     * Appends two strings together and returns a new value\n     *\n     * @param _base When being used for a data type this is the extended object\n     *              otherwise this is the string which will be the concatenated\n     *              prefix\n     * @param _value The value to be the concatenated suffix\n     *\n     * @return string The resulting string from combinging the base and value\n     */\n    function concat(string calldata _base, string calldata _value)\n        external\n        pure\n        returns (string memory)\n    {\n        return string(abi.encodePacked(_base, _value));\n    }\n\n    /**\n     * Locates and returns the position of a character within a string\n     *\n     * @param _base When being used for a data type this is the extended object\n     *              otherwise this is the string acting as the haystack to be\n     *              searched\n     * @param _value The needle to search for, at present this is currently\n     *               limited to one character\n     * @return int The position of the needle starting from 0 and returning -1\n     *             in the case of no matches found\n     */\n    function indexOf(string memory _base, string memory _value)\n        internal\n        pure\n        returns (int256)\n    {\n        return _indexOf(_base, _value, 0);\n    }\n\n    /**\n     * Locates and returns the position of a character within a string starting\n     * from a defined offset\n     *\n     * @param _base When being used for a data type this is the extended object\n     *              otherwise this is the string acting as the haystack to be\n     *              searched\n     * @param _value The needle to search for, at present this is currently\n     *               limited to one character\n     * @param _offset The starting point to start searching from which can start\n     *                from 0, but must not exceed the length of the string\n\n     * @return int The position of the needle starting from 0 and returning -1\n     *             in the case of no matches found\n     */\n    function _indexOf(\n        string memory _base,\n        string memory _value,\n        uint256 _offset\n    ) internal pure returns (int256) {\n        bytes memory _baseBytes = bytes(_base);\n        bytes memory _valueBytes = bytes(_value);\n\n        assert(_valueBytes.length == 1);\n\n        for (uint256 i = _offset; i < _baseBytes.length; i++) {\n            if (_baseBytes[i] == _valueBytes[0]) {\n                return int256(i);\n            }\n        }\n\n        return -1;\n    }\n\n    /**\n     * Extracts the beginning part of a string based on the desired length\n     *\n     * @param _base When being used for a data type this is the extended object\n     *              otherwise this is the string that will be used for\n     *              extracting the sub string from\n     * @param _length The length of the sub string to be extracted from the base\n     * @return string The extracted sub string\n     */\n    function substring(string memory _base, int256 _length)\n        internal\n        pure\n        returns (string memory)\n    {\n        return _substring(_base, _length, 0);\n    }\n\n    /**\n     * Sub String\n     *\n     * Extracts the part of a string based on the desired length and offset. The\n     * offset and length must not exceed the lenth of the base string.\n     *\n     * @param _base When being used for a data type this is the extended object\n     *              otherwise this is the string that will be used for\n     *              extracting the sub string from\n     * @param _length The length of the sub string to be extracted from the base\n     * @param _offset The starting point to extract the sub string from\n     * @return string The extracted sub string\n     */\n    function _substring(\n        string memory _base,\n        int256 _length,\n        int256 _offset\n    ) internal pure returns (string memory) {\n        bytes memory _baseBytes = bytes(_base);\n\n        assert(uint256(_offset + _length) <= _baseBytes.length);\n\n        string memory _tmp = new string(uint256(_length));\n        bytes memory _tmpBytes = bytes(_tmp);\n\n        uint256 j = 0;\n        for (\n            uint256 i = uint256(_offset);\n            i < uint256(_offset + _length);\n            i++\n        ) {\n            _tmpBytes[j++] = _baseBytes[i];\n        }\n\n        return string(_tmpBytes);\n    }\n\n    /**\n     * String Split (Very high gas cost)\n     *\n     * Splits a string into an array of strings based off the delimiter value.\n     * Please note this can be quite a gas expensive function due to the use of\n     * storage so only use if really required.\n     *\n     * @param _base When being used for a data type this is the extended object\n     *               otherwise this is the string value to be split.\n     * @param _value The delimiter to split the string on which must be a single\n     *               character\n     * @return splitArr An array of values split based off the delimiter, but\n     *                  do not container the delimiter.\n     */\n    function split(string memory _base, string memory _value)\n        internal\n        pure\n        returns (string[] memory splitArr)\n    {\n        bytes memory _baseBytes = bytes(_base);\n\n        uint256 _offset = 0;\n        uint256 _splitsCount = 1;\n        while (_offset < _baseBytes.length - 1) {\n            int256 _limit = _indexOf(_base, _value, _offset);\n            if (_limit == -1) break;\n            else {\n                _splitsCount++;\n                _offset = uint256(_limit) + 1;\n            }\n        }\n\n        splitArr = new string[](_splitsCount);\n\n        _offset = 0;\n        _splitsCount = 0;\n        while (_offset < _baseBytes.length - 1) {\n            int256 _limit = _indexOf(_base, _value, _offset);\n            if (_limit == -1) {\n                _limit = int256(_baseBytes.length);\n            }\n\n            string memory _tmp = new string(uint256(_limit) - _offset);\n            bytes memory _tmpBytes = bytes(_tmp);\n\n            uint256 j = 0;\n            for (uint256 i = _offset; i < uint256(_limit); i++) {\n                _tmpBytes[j++] = _baseBytes[i];\n            }\n            _offset = uint256(_limit) + 1;\n            splitArr[_splitsCount++] = string(_tmpBytes);\n        }\n        return splitArr;\n    }\n\n    /**\n     * Compares the characters of two strings, to ensure that they have an\n     * identical footprint\n     *\n     * @param _base When being used for a data type this is the extended object\n     *               otherwise this is the string base to compare against\n     * @param _value The string the base is being compared to\n     *\n     * @return bool Simply notates if the two string have an equivalent\n     */\n    function compare(string calldata _base, string calldata _value)\n        public\n        pure\n        returns (bool)\n    {\n        //coverts strings to bytes 32 and pass it to the keccak256 hash algorithm and compare the results\n        return\n            keccak256(abi.encodePacked(_base)) ==\n            keccak256(abi.encodePacked(_value));\n    }\n\n    /**\n     * Compare To Ignore Case (High gas cost)\n     *\n     * Compares the characters of two strings, converting them to the same case\n     * where applicable to alphabetic characters to distinguish if the values\n     * match.\n     *\n     * @param _base When being used for a data type this is the extended object\n     *               otherwise this is the string base to compare against\n     * @param _value The string the base is being compared to\n     *\n     * @return bool Simply notates if the two string have an equivalent value\n     *              discarding case\n     */\n    function compareToIgnoreCase(string memory _base, string memory _value)\n        internal\n        pure\n        returns (bool)\n    {\n        bytes memory _baseBytes = bytes(_base);\n        bytes memory _valueBytes = bytes(_value);\n\n        if (_baseBytes.length != _valueBytes.length) {\n            return false;\n        }\n\n        for (uint256 i = 0; i < _baseBytes.length; i++) {\n            if (\n                _baseBytes[i] != _valueBytes[i] &&\n                _upper(_baseBytes[i]) != _upper(_valueBytes[i])\n            ) {\n                return false;\n            }\n        }\n\n        return true;\n    }\n\n    /**\n     * Converts all the values of a string to their corresponding upper case\n     * value.\n     *\n     * @param _base When being used for a data type this is the extended object\n     *              otherwise this is the string base to convert to upper case\n     * @return string\n     */\n    function upper(string memory _base) internal pure returns (string memory) {\n        bytes memory _baseBytes = bytes(_base);\n        for (uint256 i = 0; i < _baseBytes.length; i++) {\n            _baseBytes[i] = _upper(_baseBytes[i]);\n        }\n        return string(_baseBytes);\n    }\n\n    /**\n     * Converts all the values of a string to their corresponding lower case\n     * value.\n     *\n     * @param _base When being used for a data type this is the extended object\n     *              otherwise this is the string base to convert to lower case\n     * @return string\n     */\n    function lower(string memory _base) internal pure returns (string memory) {\n        bytes memory _baseBytes = bytes(_base);\n        for (uint256 i = 0; i < _baseBytes.length; i++) {\n            _baseBytes[i] = _lower(_baseBytes[i]);\n        }\n        return string(_baseBytes);\n    }\n\n    /**\n     * Convert an alphabetic character to upper case and return the original\n     * value when not alphabetic\n     *\n     * @param _b1 The byte to be converted to upper case\n     * @return bytes1 The converted value if the passed value was alphabetic\n     *                and in a lower case otherwise returns the original value\n     */\n    function _upper(bytes1 _b1) internal pure returns (bytes1) {\n        if (_b1 >= 0x61 && _b1 <= 0x7A) {\n            return bytes1(uint8(_b1) - 32);\n        }\n\n        return _b1;\n    }\n\n    /**\n     * Convert an alphabetic character to lower case and return the original\n     * value when not alphabetic\n     *\n     * @param _b1 The byte to be converted to lower case\n     * @return bytes1 The converted value if the passed value was alphabetic\n     *                and in a upper case otherwise returns the original value\n     */\n    function _lower(bytes1 _b1) internal pure returns (bytes1) {\n        if (_b1 >= 0x41 && _b1 <= 0x5A) {\n            return bytes1(uint8(_b1) + 32);\n        }\n\n        return _b1;\n    }\n\n    /**\n     * Return a string in a reversed format\n     *\n     * @param _str The string to be reversed\n     * @return string\n     */\n    function reverse(string calldata _str)\n        external\n        pure\n        returns (string memory)\n    {\n        //converts string to bytes in memory\n        bytes memory str = bytes(_str);\n        //creates a new temporary string with same length\n        string memory tmp = new string(str.length);\n        //build a bytes variable based on temp\n        bytes memory _reversed = bytes(tmp);\n\n        //iterate on str which is the bytes string\n        for (uint256 i = 0; i < str.length; i++) {\n            _reversed[str.length - i - 1] = str[i];\n        }\n\n        return string(_reversed);\n    }\n}\n",
  "sourcePath": "/Users/abrahamudele/Documents/Solidity/supply-chain/contracts/utils/Strings.sol",
  "compiler": {
    "name": "solc",
    "version": "0.8.11+commit.d7f03943.Emscripten.clang"
  },
  "schemaVersion": "3.4.4",
  "updatedAt": "2022-02-26T23:40:26.640Z",
  "networkType": "ethereum",
  "devdoc": {
    "author": "Abraham Udele <hello@abrahamudele.com>",
    "kind": "dev",
    "methods": {
      "compare(string,string)": {
        "params": {
          "_base": "When being used for a data type this is the extended object               otherwise this is the string base to compare against",
          "_value": "The string the base is being compared to"
        },
        "returns": {
          "_0": "bool Simply notates if the two string have an equivalent"
        }
      },
      "concat(string,string)": {
        "params": {
          "_base": "When being used for a data type this is the extended object              otherwise this is the string which will be the concatenated              prefix",
          "_value": "The value to be the concatenated suffix"
        },
        "returns": {
          "_0": "string The resulting string from combinging the base and value"
        }
      },
      "reverse(string)": {
        "params": {
          "_str": "The string to be reversed"
        },
        "returns": {
          "_0": "string"
        }
      }
    },
    "version": 1
  },
  "userdoc": {
    "kind": "user",
    "methods": {
      "compare(string,string)": {
        "notice": "Compares the characters of two strings, to ensure that they have an identical footprint"
      },
      "concat(string,string)": {
        "notice": "Concat (Has high gas cost) Appends two strings together and returns a new value"
      },
      "reverse(string)": {
        "notice": "Return a string in a reversed format"
      }
    },
    "notice": "Strings Library This is a simple library of string functions which make simple string operations less tedious in solidity. Please be aware these functions can be quite gas heavy so use them only when necessary not to clog the blockchain with expensive transactions.",
    "version": 1
  }
}