{
  "contractName": "SupplyChain",
  "abi": [
    {
      "anonymous": false,
      "inputs": [
        {
          "indexed": false,
          "internalType": "uint32",
          "name": "productId",
          "type": "uint32"
        }
      ],
      "name": "TransferOwnership",
      "type": "event"
    },
    {
      "inputs": [
        {
          "internalType": "uint32",
          "name": "",
          "type": "uint32"
        }
      ],
      "name": "ownerships",
      "outputs": [
        {
          "internalType": "uint32",
          "name": "productId",
          "type": "uint32"
        },
        {
          "internalType": "uint32",
          "name": "ownerId",
          "type": "uint32"
        },
        {
          "internalType": "uint256",
          "name": "trxTimestamp",
          "type": "uint256"
        },
        {
          "internalType": "address",
          "name": "productOwner",
          "type": "address"
        }
      ],
      "stateMutability": "view",
      "type": "function",
      "constant": true
    },
    {
      "inputs": [
        {
          "internalType": "uint32",
          "name": "",
          "type": "uint32"
        }
      ],
      "name": "participants",
      "outputs": [
        {
          "internalType": "string",
          "name": "username",
          "type": "string"
        },
        {
          "internalType": "string",
          "name": "password",
          "type": "string"
        },
        {
          "internalType": "string",
          "name": "participantType",
          "type": "string"
        },
        {
          "internalType": "address",
          "name": "participantAddress",
          "type": "address"
        }
      ],
      "stateMutability": "view",
      "type": "function",
      "constant": true
    },
    {
      "inputs": [
        {
          "internalType": "uint32",
          "name": "",
          "type": "uint32"
        },
        {
          "internalType": "uint256",
          "name": "",
          "type": "uint256"
        }
      ],
      "name": "productTracker",
      "outputs": [
        {
          "internalType": "uint32",
          "name": "",
          "type": "uint32"
        }
      ],
      "stateMutability": "view",
      "type": "function",
      "constant": true
    },
    {
      "inputs": [
        {
          "internalType": "uint32",
          "name": "",
          "type": "uint32"
        }
      ],
      "name": "products",
      "outputs": [
        {
          "internalType": "string",
          "name": "modelNumber",
          "type": "string"
        },
        {
          "internalType": "string",
          "name": "partNumber",
          "type": "string"
        },
        {
          "internalType": "string",
          "name": "serialNumber",
          "type": "string"
        },
        {
          "internalType": "address",
          "name": "productOwner",
          "type": "address"
        },
        {
          "internalType": "uint32",
          "name": "cost",
          "type": "uint32"
        },
        {
          "internalType": "uint256",
          "name": "mfgTimestamp",
          "type": "uint256"
        }
      ],
      "stateMutability": "view",
      "type": "function",
      "constant": true
    },
    {
      "inputs": [
        {
          "internalType": "string",
          "name": "_username",
          "type": "string"
        },
        {
          "internalType": "string",
          "name": "_password",
          "type": "string"
        },
        {
          "internalType": "string",
          "name": "_participantType",
          "type": "string"
        },
        {
          "internalType": "address",
          "name": "_participantAddress",
          "type": "address"
        }
      ],
      "name": "addParticipant",
      "outputs": [
        {
          "internalType": "uint32",
          "name": "_userId",
          "type": "uint32"
        }
      ],
      "stateMutability": "nonpayable",
      "type": "function"
    },
    {
      "inputs": [
        {
          "internalType": "uint32",
          "name": "_productId",
          "type": "uint32"
        }
      ],
      "name": "getParticipant",
      "outputs": [
        {
          "internalType": "string",
          "name": "",
          "type": "string"
        },
        {
          "internalType": "address",
          "name": "",
          "type": "address"
        },
        {
          "internalType": "string",
          "name": "",
          "type": "string"
        }
      ],
      "stateMutability": "view",
      "type": "function",
      "constant": true
    },
    {
      "inputs": [
        {
          "internalType": "uint32",
          "name": "_ownerId",
          "type": "uint32"
        },
        {
          "internalType": "string",
          "name": "_modelNumber",
          "type": "string"
        },
        {
          "internalType": "string",
          "name": "_partNumber",
          "type": "string"
        },
        {
          "internalType": "string",
          "name": "_serialNumber",
          "type": "string"
        },
        {
          "internalType": "uint32",
          "name": "_cost",
          "type": "uint32"
        }
      ],
      "name": "addProduct",
      "outputs": [
        {
          "internalType": "uint32",
          "name": "__productId",
          "type": "uint32"
        }
      ],
      "stateMutability": "nonpayable",
      "type": "function"
    },
    {
      "inputs": [
        {
          "internalType": "uint32",
          "name": "_productId",
          "type": "uint32"
        }
      ],
      "name": "getProduct",
      "outputs": [
        {
          "components": [
            {
              "internalType": "string",
              "name": "modelNumber",
              "type": "string"
            },
            {
              "internalType": "string",
              "name": "partNumber",
              "type": "string"
            },
            {
              "internalType": "string",
              "name": "serialNumber",
              "type": "string"
            },
            {
              "internalType": "address",
              "name": "productOwner",
              "type": "address"
            },
            {
              "internalType": "uint32",
              "name": "cost",
              "type": "uint32"
            },
            {
              "internalType": "uint256",
              "name": "mfgTimestamp",
              "type": "uint256"
            }
          ],
          "internalType": "struct SupplyChain.product",
          "name": "",
          "type": "tuple"
        }
      ],
      "stateMutability": "view",
      "type": "function",
      "constant": true
    },
    {
      "inputs": [
        {
          "internalType": "uint32",
          "name": "_userId1",
          "type": "uint32"
        },
        {
          "internalType": "uint32",
          "name": "_userId2",
          "type": "uint32"
        },
        {
          "internalType": "uint32",
          "name": "_productId",
          "type": "uint32"
        }
      ],
      "name": "newOwner",
      "outputs": [
        {
          "internalType": "bool",
          "name": "",
          "type": "bool"
        }
      ],
      "stateMutability": "nonpayable",
      "type": "function"
    },
    {
      "inputs": [
        {
          "internalType": "uint32",
          "name": "_productId",
          "type": "uint32"
        }
      ],
      "name": "getProvenance",
      "outputs": [
        {
          "internalType": "uint32[]",
          "name": "",
          "type": "uint32[]"
        }
      ],
      "stateMutability": "view",
      "type": "function",
      "constant": true
    },
    {
      "inputs": [
        {
          "internalType": "uint32",
          "name": "_ownershipId",
          "type": "uint32"
        }
      ],
      "name": "getOwnership",
      "outputs": [
        {
          "components": [
            {
              "internalType": "uint32",
              "name": "productId",
              "type": "uint32"
            },
            {
              "internalType": "uint32",
              "name": "ownerId",
              "type": "uint32"
            },
            {
              "internalType": "uint256",
              "name": "trxTimestamp",
              "type": "uint256"
            },
            {
              "internalType": "address",
              "name": "productOwner",
              "type": "address"
            }
          ],
          "internalType": "struct SupplyChain.ownership",
          "name": "",
          "type": "tuple"
        }
      ],
      "stateMutability": "view",
      "type": "function",
      "constant": true
    },
    {
      "inputs": [
        {
          "internalType": "uint32",
          "name": "_userId",
          "type": "uint32"
        },
        {
          "internalType": "string",
          "name": "_username",
          "type": "string"
        },
        {
          "internalType": "string",
          "name": "_userType",
          "type": "string"
        },
        {
          "internalType": "string",
          "name": "_password",
          "type": "string"
        }
      ],
      "name": "authParticipant",
      "outputs": [
        {
          "internalType": "bool",
          "name": "",
          "type": "bool"
        }
      ],
      "stateMutability": "view",
      "type": "function",
      "constant": true
    },
    {
      "inputs": [
        {
          "internalType": "string",
          "name": "_base",
          "type": "string"
        },
        {
          "internalType": "string",
          "name": "_value",
          "type": "string"
        }
      ],
      "name": "compare",
      "outputs": [
        {
          "internalType": "bool",
          "name": "",
          "type": "bool"
        }
      ],
      "stateMutability": "pure",
      "type": "function",
      "constant": true
    }
  ],
  "bytecode": "0x608060405260008060006101000a81548163ffffffff021916908363ffffffff16021790555060008060046101000a81548163ffffffff021916908363ffffffff16021790555060008060086101000a81548163ffffffff021916908363ffffffff16021790555034801561007357600080fd5b50613181806100836000396000f3fe608060405234801561001057600080fd5b50600436106100cf5760003560e01c80637d0a9ac91161008c578063bf712fd611610066578063bf712fd61461028c578063c1ffb10e146102c1578063c8569565146102f1578063df6d23f114610321576100cf565b80637d0a9ac9146101f657806381e1561014610229578063a638ac491461025c576100cf565b806313169bed146100d45780632e9d5284146101045780633a96fdd7146101345780633b26a65d146101645780633c51e6a31461019657806350632104146101c6575b600080fd5b6100ee60048036038101906100e991906124c3565b610351565b6040516100fb919061259d565b60405180910390f35b61011e600480360381019061011991906125e4565b6104a8565b60405161012b9190612652565b60405180910390f35b61014e600480360381019061014991906126cd565b610e45565b60405161015b9190612652565b60405180910390f35b61017e6004803603810190610179919061274e565b610ea4565b60405161018d93929190612812565b60405180910390f35b6101b060048036038101906101ab919061288d565b611056565b6040516101bd919061259d565b60405180910390f35b6101e060048036038101906101db91906128cd565b61109f565b6040516101ed919061259d565b60405180910390f35b610210600480360381019061020b919061274e565b61140b565b604051610220949392919061299c565b60405180910390f35b610243600480360381019061023e919061274e565b6115f3565b6040516102539493929190612a05565b60405180910390f35b6102766004803603810190610271919061274e565b611663565b6040516102839190612b58565b60405180910390f35b6102a660048036038101906102a1919061274e565b6118d8565b6040516102b896959493929190612b7a565b60405180910390f35b6102db60048036038101906102d69190612bf0565b611adc565b6040516102e89190612652565b60405180910390f35b61030b6004803603810190610306919061274e565b611e77565b6040516103189190612d5a565b60405180910390f35b61033b6004803603810190610336919061274e565b611f1a565b6040516103489190612dd1565b60405180910390f35b6000806000600481819054906101000a900463ffffffff168092919061037690612e1b565b91906101000a81548163ffffffff021916908363ffffffff160217905550905085600260008363ffffffff1663ffffffff16815260200190815260200160002060000190805190602001906103cc9291906121cc565b5084600260008363ffffffff1663ffffffff16815260200190815260200160002060010190805190602001906104039291906121cc565b5083600260008363ffffffff1663ffffffff168152602001908152602001600020600201908051906020019061043a9291906121cc565b5082600260008363ffffffff1663ffffffff16815260200190815260200160002060030160006101000a81548173ffffffffffffffffffffffffffffffffffffffff021916908373ffffffffffffffffffffffffffffffffffffffff16021790555080915050949350505050565b6000813373ffffffffffffffffffffffffffffffffffffffff16600160008363ffffffff1663ffffffff16815260200190815260200160002060030160009054906101000a900473ffffffffffffffffffffffffffffffffffffffff1673ffffffffffffffffffffffffffffffffffffffff161461055b576040517f08c379a000000000000000000000000000000000000000000000000000000000815260040161055290612e94565b60405180910390fd5b6000600260008763ffffffff1663ffffffff16815260200190815260200160002060405180608001604052908160008201805461059790612ee3565b80601f01602080910402602001604051908101604052809291908181526020018280546105c390612ee3565b80156106105780601f106105e557610100808354040283529160200191610610565b820191906000526020600020905b8154815290600101906020018083116105f357829003601f168201915b5050505050815260200160018201805461062990612ee3565b80601f016020809104026020016040519081016040528092919081815260200182805461065590612ee3565b80156106a25780601f10610677576101008083540402835291602001916106a2565b820191906000526020600020905b81548152906001019060200180831161068557829003601f168201915b505050505081526020016002820180546106bb90612ee3565b80601f01602080910402602001604051908101604052809291908181526020018280546106e790612ee3565b80156107345780601f1061070957610100808354040283529160200191610734565b820191906000526020600020905b81548152906001019060200180831161071757829003601f168201915b505050505081526020016003820160009054906101000a900473ffffffffffffffffffffffffffffffffffffffff1673ffffffffffffffffffffffffffffffffffffffff1673ffffffffffffffffffffffffffffffffffffffff168152505090506000600260008763ffffffff1663ffffffff1681526020019081526020016000206040518060800160405290816000820180546107d190612ee3565b80601f01602080910402602001604051908101604052809291908181526020018280546107fd90612ee3565b801561084a5780601f1061081f5761010080835404028352916020019161084a565b820191906000526020600020905b81548152906001019060200180831161082d57829003601f168201915b5050505050815260200160018201805461086390612ee3565b80601f016020809104026020016040519081016040528092919081815260200182805461088f90612ee3565b80156108dc5780601f106108b1576101008083540402835291602001916108dc565b820191906000526020600020905b8154815290600101906020018083116108bf57829003601f168201915b505050505081526020016002820180546108f590612ee3565b80601f016020809104026020016040519081016040528092919081815260200182805461092190612ee3565b801561096e5780601f106109435761010080835404028352916020019161096e565b820191906000526020600020905b81548152906001019060200180831161095157829003601f168201915b505050505081526020016003820160009054906101000a900473ffffffffffffffffffffffffffffffffffffffff1673ffffffffffffffffffffffffffffffffffffffff1673ffffffffffffffffffffffffffffffffffffffff16815250509050600080600881819054906101000a900463ffffffff16809291906109f290612e1b565b91906101000a81548163ffffffff021916908363ffffffff160217905550905060006040518060400160405280600c81526020017f4d616e7566616374757265720000000000000000000000000000000000000000815250905060006040518060400160405280600881526020017f537570706c696572000000000000000000000000000000000000000000000000815250905060006040518060400160405280600881526020017f436f6e73756d65720000000000000000000000000000000000000000000000008152509050856040015173__Strings_______________________________633a96fdd79091856040518363ffffffff1660e01b8152600401610aff929190612f5f565b602060405180830381865af4158015610b1c573d6000803e3d6000fd5b505050506040513d601f19601f82011682018060405250810190610b409190612fc2565b8015610bc85750846040015173__Strings_______________________________633a96fdd79091846040518363ffffffff1660e01b8152600401610b86929190612f5f565b602060405180830381865af4158015610ba3573d6000803e3d6000fd5b505050506040513d601f19601f82011682018060405250810190610bc79190612fc2565b5b15610be657610bd98a858b88611fff565b9750505050505050610e3d565b856040015173__Strings_______________________________633a96fdd79091846040518363ffffffff1660e01b8152600401610c25929190612f5f565b602060405180830381865af4158015610c42573d6000803e3d6000fd5b505050506040513d601f19601f82011682018060405250810190610c669190612fc2565b8015610cee5750846040015173__Strings_______________________________633a96fdd79091846040518363ffffffff1660e01b8152600401610cac929190612f5f565b602060405180830381865af4158015610cc9573d6000803e3d6000fd5b505050506040513d601f19601f82011682018060405250810190610ced9190612fc2565b5b15610d0c57610cff8a858b88611fff565b9750505050505050610e3d565b856040015173__Strings_______________________________633a96fdd79091846040518363ffffffff1660e01b8152600401610d4b929190612f5f565b602060405180830381865af4158015610d68573d6000803e3d6000fd5b505050506040513d601f19601f82011682018060405250810190610d8c9190612fc2565b8015610e145750846040015173__Strings_______________________________633a96fdd79091836040518363ffffffff1660e01b8152600401610dd2929190612f5f565b602060405180830381865af4158015610def573d6000803e3d6000fd5b505050506040513d601f19601f82011682018060405250810190610e139190612fc2565b5b15610e3257610e258a858b88611fff565b9750505050505050610e3d565b600097505050505050505b509392505050565b60008282604051602001610e5a92919061301f565b604051602081830303815290604052805190602001208585604051602001610e8392919061301f565b60405160208183030381529060405280519060200120149050949350505050565b606060006060600260008563ffffffff1663ffffffff168152602001908152602001600020600001600260008663ffffffff1663ffffffff16815260200190815260200160002060030160009054906101000a900473ffffffffffffffffffffffffffffffffffffffff16600260008763ffffffff1663ffffffff168152602001908152602001600020600201828054610f3d90612ee3565b80601f0160208091040260200160405190810160405280929190818152602001828054610f6990612ee3565b8015610fb65780601f10610f8b57610100808354040283529160200191610fb6565b820191906000526020600020905b815481529060010190602001808311610f9957829003601f168201915b50505050509250808054610fc990612ee3565b80601f0160208091040260200160405190810160405280929190818152602001828054610ff590612ee3565b80156110425780601f1061101757610100808354040283529160200191611042565b820191906000526020600020905b81548152906001019060200180831161102557829003601f168201915b505050505090509250925092509193909250565b6004602052816000526040600020818154811061107257600080fd5b9060005260206000209060089182820401919006600402915091509054906101000a900463ffffffff1681565b6000600260008763ffffffff1663ffffffff16815260200190815260200160002060020180546110ce90612ee3565b80601f01602080910402602001604051908101604052809291908181526020018280546110fa90612ee3565b80156111475780601f1061111c57610100808354040283529160200191611147565b820191906000526020600020905b81548152906001019060200180831161112a57829003601f168201915b505050505073__Strings_______________________________633a96fdd790916040518263ffffffff1660e01b81526004016111849190613084565b602060405180830381865af41580156111a1573d6000803e3d6000fd5b505050506040513d601f19601f820116820180604052508101906111c59190612fc2565b611204576040517f08c379a00000000000000000000000000000000000000000000000000000000081526004016111fb9061312b565b60405180910390fd5b600080600081819054906101000a900463ffffffff168092919061122790612e1b565b91906101000a81548163ffffffff021916908363ffffffff160217905550905085600160008363ffffffff1663ffffffff168152602001908152602001600020600001908051906020019061127d9291906121cc565b5084600160008363ffffffff1663ffffffff16815260200190815260200160002060010190805190602001906112b49291906121cc565b5083600160008363ffffffff1663ffffffff16815260200190815260200160002060020190805190602001906112eb9291906121cc565b50600260008863ffffffff1663ffffffff16815260200190815260200160002060030160009054906101000a900473ffffffffffffffffffffffffffffffffffffffff16600160008363ffffffff1663ffffffff16815260200190815260200160002060030160006101000a81548173ffffffffffffffffffffffffffffffffffffffff021916908373ffffffffffffffffffffffffffffffffffffffff16021790555082600160008363ffffffff1663ffffffff16815260200190815260200160002060030160146101000a81548163ffffffff021916908363ffffffff1602179055506113d86121c4565b600160008363ffffffff1663ffffffff168152602001908152602001600020600401819055508091505095945050505050565b600260205280600052604060002060009150905080600001805461142e90612ee3565b80601f016020809104026020016040519081016040528092919081815260200182805461145a90612ee3565b80156114a75780601f1061147c576101008083540402835291602001916114a7565b820191906000526020600020905b81548152906001019060200180831161148a57829003601f168201915b5050505050908060010180546114bc90612ee3565b80601f01602080910402602001604051908101604052809291908181526020018280546114e890612ee3565b80156115355780601f1061150a57610100808354040283529160200191611535565b820191906000526020600020905b81548152906001019060200180831161151857829003601f168201915b50505050509080600201805461154a90612ee3565b80601f016020809104026020016040519081016040528092919081815260200182805461157690612ee3565b80156115c35780601f10611598576101008083540402835291602001916115c3565b820191906000526020600020905b8154815290600101906020018083116115a657829003601f168201915b5050505050908060030160009054906101000a900473ffffffffffffffffffffffffffffffffffffffff16905084565b60036020528060005260406000206000915090508060000160009054906101000a900463ffffffff16908060000160049054906101000a900463ffffffff16908060010154908060020160009054906101000a900473ffffffffffffffffffffffffffffffffffffffff16905084565b61166b612252565b600160008363ffffffff1663ffffffff1681526020019081526020016000206040518060c00160405290816000820180546116a590612ee3565b80601f01602080910402602001604051908101604052809291908181526020018280546116d190612ee3565b801561171e5780601f106116f35761010080835404028352916020019161171e565b820191906000526020600020905b81548152906001019060200180831161170157829003601f168201915b5050505050815260200160018201805461173790612ee3565b80601f016020809104026020016040519081016040528092919081815260200182805461176390612ee3565b80156117b05780601f10611785576101008083540402835291602001916117b0565b820191906000526020600020905b81548152906001019060200180831161179357829003601f168201915b505050505081526020016002820180546117c990612ee3565b80601f01602080910402602001604051908101604052809291908181526020018280546117f590612ee3565b80156118425780601f1061181757610100808354040283529160200191611842565b820191906000526020600020905b81548152906001019060200180831161182557829003601f168201915b505050505081526020016003820160009054906101000a900473ffffffffffffffffffffffffffffffffffffffff1673ffffffffffffffffffffffffffffffffffffffff1673ffffffffffffffffffffffffffffffffffffffff1681526020016003820160149054906101000a900463ffffffff1663ffffffff1663ffffffff1681526020016004820154815250509050919050565b60016020528060005260406000206000915090508060000180546118fb90612ee3565b80601f016020809104026020016040519081016040528092919081815260200182805461192790612ee3565b80156119745780601f1061194957610100808354040283529160200191611974565b820191906000526020600020905b81548152906001019060200180831161195757829003601f168201915b50505050509080600101805461198990612ee3565b80601f01602080910402602001604051908101604052809291908181526020018280546119b590612ee3565b8015611a025780601f106119d757610100808354040283529160200191611a02565b820191906000526020600020905b8154815290600101906020018083116119e557829003601f168201915b505050505090806002018054611a1790612ee3565b80601f0160208091040260200160405190810160405280929190818152602001828054611a4390612ee3565b8015611a905780601f10611a6557610100808354040283529160200191611a90565b820191906000526020600020905b815481529060010190602001808311611a7357829003601f168201915b5050505050908060030160009054906101000a900473ffffffffffffffffffffffffffffffffffffffff16908060030160149054906101000a900463ffffffff16908060040154905086565b6000600260008663ffffffff1663ffffffff1681526020019081526020016000206002018054611b0b90612ee3565b80601f0160208091040260200160405190810160405280929190818152602001828054611b3790612ee3565b8015611b845780601f10611b5957610100808354040283529160200191611b84565b820191906000526020600020905b815481529060010190602001808311611b6757829003601f168201915b505050505073__Strings_______________________________633a96fdd79091856040518363ffffffff1660e01b8152600401611bc3929190612f5f565b602060405180830381865af4158015611be0573d6000803e3d6000fd5b505050506040513d601f19601f82011682018060405250810190611c049190612fc2565b15611e6a57600260008663ffffffff1663ffffffff1681526020019081526020016000206000018054611c3690612ee3565b80601f0160208091040260200160405190810160405280929190818152602001828054611c6290612ee3565b8015611caf5780601f10611c8457610100808354040283529160200191611caf565b820191906000526020600020905b815481529060010190602001808311611c9257829003601f168201915b505050505073__Strings_______________________________633a96fdd79091866040518363ffffffff1660e01b8152600401611cee929190612f5f565b602060405180830381865af4158015611d0b573d6000803e3d6000fd5b505050506040513d601f19601f82011682018060405250810190611d2f9190612fc2565b15611e6957600260008663ffffffff1663ffffffff1681526020019081526020016000206001018054611d6190612ee3565b80601f0160208091040260200160405190810160405280929190818152602001828054611d8d90612ee3565b8015611dda5780601f10611daf57610100808354040283529160200191611dda565b820191906000526020600020905b815481529060010190602001808311611dbd57829003601f168201915b505050505073__Strings_______________________________633a96fdd79091846040518363ffffffff1660e01b8152600401611e19929190612f5f565b602060405180830381865af4158015611e36573d6000803e3d6000fd5b505050506040513d601f19601f82011682018060405250810190611e5a9190612fc2565b15611e685760019050611e6f565b5b5b600090505b949350505050565b6060600460008363ffffffff1663ffffffff168152602001908152602001600020805480602002602001604051908101604052809291908181526020018280548015611f0e57602002820191906000526020600020906000905b82829054906101000a900463ffffffff1663ffffffff1681526020019060040190602082600301049283019260010382029150808411611ed15790505b50505050509050919050565b611f226122a4565b600360008363ffffffff1663ffffffff1681526020019081526020016000206040518060800160405290816000820160009054906101000a900463ffffffff1663ffffffff1663ffffffff1681526020016000820160049054906101000a900463ffffffff1663ffffffff1663ffffffff168152602001600182015481526020016002820160009054906101000a900473ffffffffffffffffffffffffffffffffffffffff1673ffffffffffffffffffffffffffffffffffffffff1673ffffffffffffffffffffffffffffffffffffffff16815250509050919050565b600082600360008663ffffffff1663ffffffff16815260200190815260200160002060000160006101000a81548163ffffffff021916908363ffffffff16021790555084600360008663ffffffff1663ffffffff16815260200190815260200160002060000160046101000a81548163ffffffff021916908363ffffffff16021790555061208b6121c4565b600360008663ffffffff1663ffffffff168152602001908152602001600020600101819055508160600151600360008663ffffffff1663ffffffff16815260200190815260200160002060020160006101000a81548173ffffffffffffffffffffffffffffffffffffffff021916908373ffffffffffffffffffffffffffffffffffffffff160217905550600460008463ffffffff1663ffffffff1681526020019081526020016000208490806001815401808255809150506001900390600052602060002090600891828204019190066004029091909190916101000a81548163ffffffff021916908363ffffffff1602179055507fa5470ac012c6e9dc500e62b1d3de0de58db49b3ab7cfebbfb126d9abd854199b836040516121b0919061259d565b60405180910390a160019050949350505050565b600042905090565b8280546121d890612ee3565b90600052602060002090601f0160209004810192826121fa5760008555612241565b82601f1061221357805160ff1916838001178555612241565b82800160010185558215612241579182015b82811115612240578251825591602001919060010190612225565b5b50905061224e91906122ee565b5090565b6040518060c00160405280606081526020016060815260200160608152602001600073ffffffffffffffffffffffffffffffffffffffff168152602001600063ffffffff168152602001600081525090565b6040518060800160405280600063ffffffff168152602001600063ffffffff16815260200160008152602001600073ffffffffffffffffffffffffffffffffffffffff1681525090565b5b808211156123075760008160009055506001016122ef565b5090565b6000604051905090565b600080fd5b600080fd5b600080fd5b600080fd5b6000601f19601f8301169050919050565b7f4e487b7100000000000000000000000000000000000000000000000000000000600052604160045260246000fd5b61237282612329565b810181811067ffffffffffffffff821117156123915761239061233a565b5b80604052505050565b60006123a461230b565b90506123b08282612369565b919050565b600067ffffffffffffffff8211156123d0576123cf61233a565b5b6123d982612329565b9050602081019050919050565b82818337600083830152505050565b6000612408612403846123b5565b61239a565b90508281526020810184848401111561242457612423612324565b5b61242f8482856123e6565b509392505050565b600082601f83011261244c5761244b61231f565b5b813561245c8482602086016123f5565b91505092915050565b600073ffffffffffffffffffffffffffffffffffffffff82169050919050565b600061249082612465565b9050919050565b6124a081612485565b81146124ab57600080fd5b50565b6000813590506124bd81612497565b92915050565b600080600080608085870312156124dd576124dc612315565b5b600085013567ffffffffffffffff8111156124fb576124fa61231a565b5b61250787828801612437565b945050602085013567ffffffffffffffff8111156125285761252761231a565b5b61253487828801612437565b935050604085013567ffffffffffffffff8111156125555761255461231a565b5b61256187828801612437565b9250506060612572878288016124ae565b91505092959194509250565b600063ffffffff82169050919050565b6125978161257e565b82525050565b60006020820190506125b2600083018461258e565b92915050565b6125c18161257e565b81146125cc57600080fd5b50565b6000813590506125de816125b8565b92915050565b6000806000606084860312156125fd576125fc612315565b5b600061260b868287016125cf565b935050602061261c868287016125cf565b925050604061262d868287016125cf565b9150509250925092565b60008115159050919050565b61264c81612637565b82525050565b60006020820190506126676000830184612643565b92915050565b600080fd5b600080fd5b60008083601f84011261268d5761268c61231f565b5b8235905067ffffffffffffffff8111156126aa576126a961266d565b5b6020830191508360018202830111156126c6576126c5612672565b5b9250929050565b600080600080604085870312156126e7576126e6612315565b5b600085013567ffffffffffffffff8111156127055761270461231a565b5b61271187828801612677565b9450945050602085013567ffffffffffffffff8111156127345761273361231a565b5b61274087828801612677565b925092505092959194509250565b60006020828403121561276457612763612315565b5b6000612772848285016125cf565b91505092915050565b600081519050919050565b600082825260208201905092915050565b60005b838110156127b557808201518184015260208101905061279a565b838111156127c4576000848401525b50505050565b60006127d58261277b565b6127df8185612786565b93506127ef818560208601612797565b6127f881612329565b840191505092915050565b61280c81612485565b82525050565b6000606082019050818103600083015261282c81866127ca565b905061283b6020830185612803565b818103604083015261284d81846127ca565b9050949350505050565b6000819050919050565b61286a81612857565b811461287557600080fd5b50565b60008135905061288781612861565b92915050565b600080604083850312156128a4576128a3612315565b5b60006128b2858286016125cf565b92505060206128c385828601612878565b9150509250929050565b600080600080600060a086880312156128e9576128e8612315565b5b60006128f7888289016125cf565b955050602086013567ffffffffffffffff8111156129185761291761231a565b5b61292488828901612437565b945050604086013567ffffffffffffffff8111156129455761294461231a565b5b61295188828901612437565b935050606086013567ffffffffffffffff8111156129725761297161231a565b5b61297e88828901612437565b925050608061298f888289016125cf565b9150509295509295909350565b600060808201905081810360008301526129b681876127ca565b905081810360208301526129ca81866127ca565b905081810360408301526129de81856127ca565b90506129ed6060830184612803565b95945050505050565b6129ff81612857565b82525050565b6000608082019050612a1a600083018761258e565b612a27602083018661258e565b612a3460408301856129f6565b612a416060830184612803565b95945050505050565b600082825260208201905092915050565b6000612a668261277b565b612a708185612a4a565b9350612a80818560208601612797565b612a8981612329565b840191505092915050565b612a9d81612485565b82525050565b612aac8161257e565b82525050565b612abb81612857565b82525050565b600060c0830160008301518482036000860152612ade8282612a5b565b91505060208301518482036020860152612af88282612a5b565b91505060408301518482036040860152612b128282612a5b565b9150506060830151612b276060860182612a94565b506080830151612b3a6080860182612aa3565b5060a0830151612b4d60a0860182612ab2565b508091505092915050565b60006020820190508181036000830152612b728184612ac1565b905092915050565b600060c0820190508181036000830152612b9481896127ca565b90508181036020830152612ba881886127ca565b90508181036040830152612bbc81876127ca565b9050612bcb6060830186612803565b612bd8608083018561258e565b612be560a08301846129f6565b979650505050505050565b60008060008060808587031215612c0a57612c09612315565b5b6000612c18878288016125cf565b945050602085013567ffffffffffffffff811115612c3957612c3861231a565b5b612c4587828801612437565b935050604085013567ffffffffffffffff811115612c6657612c6561231a565b5b612c7287828801612437565b925050606085013567ffffffffffffffff811115612c9357612c9261231a565b5b612c9f87828801612437565b91505092959194509250565b600081519050919050565b600082825260208201905092915050565b6000819050602082019050919050565b6000612ce38383612aa3565b60208301905092915050565b6000602082019050919050565b6000612d0782612cab565b612d118185612cb6565b9350612d1c83612cc7565b8060005b83811015612d4d578151612d348882612cd7565b9750612d3f83612cef565b925050600181019050612d20565b5085935050505092915050565b60006020820190508181036000830152612d748184612cfc565b905092915050565b608082016000820151612d926000850182612aa3565b506020820151612da56020850182612aa3565b506040820151612db86040850182612ab2565b506060820151612dcb6060850182612a94565b50505050565b6000608082019050612de66000830184612d7c565b92915050565b7f4e487b7100000000000000000000000000000000000000000000000000000000600052601160045260246000fd5b6000612e268261257e565b915063ffffffff821415612e3d57612e3c612dec565b5b600182019050919050565b7f5265737472696374656420746f206f6e6c792070726f64756374206f776e6572600082015250565b6000612e7e602083612786565b9150612e8982612e48565b602082019050919050565b60006020820190508181036000830152612ead81612e71565b9050919050565b7f4e487b7100000000000000000000000000000000000000000000000000000000600052602260045260246000fd5b60006002820490506001821680612efb57607f821691505b60208210811415612f0f57612f0e612eb4565b5b50919050565b600082825260208201905092915050565b6000612f318261277b565b612f3b8185612f15565b9350612f4b818560208601612797565b612f5481612329565b840191505092915050565b60006040820190508181036000830152612f798185612f26565b90508181036020830152612f8d8184612f26565b90509392505050565b612f9f81612637565b8114612faa57600080fd5b50565b600081519050612fbc81612f96565b92915050565b600060208284031215612fd857612fd7612315565b5b6000612fe684828501612fad565b91505092915050565b600081905092915050565b60006130068385612fef565b93506130138385846123e6565b82840190509392505050565b600061302c828486612ffa565b91508190509392505050565b7f4d616e7566616374757265720000000000000000000000000000000000000000600082015250565b600061306e600c83612f15565b915061307982613038565b602082019050919050565b6000604082019050818103600083015261309e8184612f26565b905081810360208301526130b181613061565b905092915050565b7f4f6e6c79204d616e7566616374757265722063616e206164642070726f64756360008201527f7473000000000000000000000000000000000000000000000000000000000000602082015250565b6000613115602283612786565b9150613120826130b9565b604082019050919050565b6000602082019050818103600083015261314481613108565b905091905056fea2646970667358221220909c34401c433f2238b5f270cdf989fa5b03df1107b801fa3f2b5aa8a4d28b2a64736f6c634300080b0033",
  "immutableReferences": {},
  "source": "// SPDX-License-Identifier: MIT\n\npragma solidity ^0.8.0;\n\nimport \"./utils/Strings.sol\";\n\ncontract SupplyChain {\n    using Strings for string;\n\n    uint32 productId = 0;\n    uint32 participantId = 0;\n    uint32 ownerId = 0;\n\n    struct product {\n        string modelNumber;\n        string partNumber;\n        string serialNumber;\n        address productOwner;\n        uint32 cost;\n        uint256 mfgTimestamp;\n    }\n\n    mapping(uint32 => product) public products;\n\n    struct participant {\n        string username;\n        string password;\n        string participantType;\n        address participantAddress;\n    }\n\n    mapping(uint32 => participant) public participants;\n\n    struct ownership {\n        uint32 productId;\n        uint32 ownerId;\n        uint256 trxTimestamp;\n        address productOwner;\n    }\n\n    mapping(uint32 => ownership) public ownerships; //Ownership ny Ownership Id => owner_id\n    mapping(uint32 => uint32[]) public productTracker; //Ownership by product Id (productId) => Movement tracking\n\n    event TransferOwnership(uint32 productId);\n\n    struct ParticipantType {\n        string manufacturer;\n        string supplier;\n        string consumer;\n    }\n\n    /**\n     * Adds an address as a participant\n     *\n     * @param _username Participant Username\n     * @param _password Participant Username\n     * @param _participantType Participant Type\n     * @param _participantAddress Participant ETH Address\n     *\n     * @return _userId\n     */\n    function addParticipant(\n        string memory _username,\n        string memory _password,\n        string memory _participantType,\n        address _participantAddress\n    ) public returns (uint32 _userId) {\n        uint32 userId = participantId++;\n\n        participants[userId].username = _username;\n        participants[userId].password = _password;\n        participants[userId].participantType = _participantType;\n        participants[userId].participantAddress = _participantAddress;\n\n        return userId;\n    }\n\n    /**\n     * Get a Participant\n     *\n     * @param _productId Participant Product Id\n     *\n     * @return (string memory,address, string memory)\n     */\n    function getParticipant(uint32 _productId)\n        public\n        view\n        returns (\n            string memory,\n            address,\n            string memory\n        )\n    {\n        return (\n            participants[_productId].username,\n            participants[_productId].participantAddress,\n            participants[_productId].participantType\n        );\n    }\n\n    /**\n     * Adds a product\n     *\n     * @param _ownerId Ownwer's Id\n     * @param _modelNumber Product Model Number\n     * @param _partNumber Product Part Number\n     * @param _serialNumber Product Serial Number\n     * @param _cost Product Cost\n     *\n     * @return __productId\n     */\n    function addProduct(\n        uint32 _ownerId,\n        string memory _modelNumber,\n        string memory _partNumber,\n        string memory _serialNumber,\n        uint32 _cost\n    ) public returns (uint32 __productId) {\n        require(\n            participants[_ownerId].participantType.compare(\"Manufacturer\"),\n            \"Only Manufacturer can add products\"\n        );\n        uint32 _productId = productId++;\n\n        products[_productId].modelNumber = _modelNumber;\n        products[_productId].partNumber = _partNumber;\n        products[_productId].serialNumber = _serialNumber;\n        products[_productId].productOwner = participants[_ownerId]\n            .participantAddress;\n        products[_productId].cost = _cost;\n        products[_productId].mfgTimestamp = _currentTime();\n\n        return _productId;\n    }\n\n    /**\n     * Get a Product\n     *\n     * @param _productId Product Id\n     *\n     * @return product\n     */\n    function getProduct(uint32 _productId)\n        public\n        view\n        returns (product memory)\n    {\n        return products[_productId];\n    }\n\n    modifier onlyOwner(uint32 _productId) {\n        require(\n            products[_productId].productOwner == msg.sender,\n            \"Restricted to only product owner\"\n        );\n        _;\n    }\n\n    /**\n     * Create a new owner of a product (Transfer Ownership)\n     *\n     * @param _userId1 First Participant Id\n     * @param _userId2 Second Participant Id\n     * @param _productId Product Id\n     *\n     * @return bool\n     */\n    function newOwner(\n        uint32 _userId1,\n        uint32 _userId2,\n        uint32 _productId\n    ) public onlyOwner(_productId) returns (bool) {\n        participant memory firstParticipant = participants[_userId1];\n        participant memory secondParticipant = participants[_userId2];\n        uint32 _ownershipId = ownerId++;\n\n        string memory manufacturer = \"Manufacturer\";\n        string memory supplier = \"Supplier\";\n        string memory consumer = \"Consumer\";\n\n        if (\n            firstParticipant.participantType.compare(manufacturer) &&\n            secondParticipant.participantType.compare(supplier)\n        ) {\n            return\n                _createOwnership(\n                    _userId2,\n                    _ownershipId,\n                    _productId,\n                    secondParticipant\n                );\n        } else if (\n            firstParticipant.participantType.compare(supplier) &&\n            secondParticipant.participantType.compare(supplier)\n        ) {\n            return\n                _createOwnership(\n                    _userId2,\n                    _ownershipId,\n                    _productId,\n                    secondParticipant\n                );\n        } else if (\n            firstParticipant.participantType.compare(supplier) &&\n            secondParticipant.participantType.compare(consumer)\n        ) {\n            return\n                _createOwnership(\n                    _userId2,\n                    _ownershipId,\n                    _productId,\n                    secondParticipant\n                );\n        }\n\n        return false;\n    }\n\n    function _currentTime() internal view returns (uint256) {\n        return block.timestamp;\n    }\n\n    /**\n     * Create a new owner of a product (Transfer Ownership)\n     *\n     * @param _ownerId Owner Id\n     * @param _ownershipId Ownership Id\n     * @param _productId Product Id\n     * @param _participant Participant\n     *\n     * @return bool\n     */\n    function _createOwnership(\n        uint32 _ownerId,\n        uint32 _ownershipId,\n        uint32 _productId,\n        participant memory _participant\n    ) private returns (bool) {\n        ownerships[_ownershipId].productId = _productId;\n        ownerships[_ownershipId].ownerId = _ownerId;\n        ownerships[_ownershipId].trxTimestamp = _currentTime();\n        ownerships[_ownershipId].productOwner = _participant.participantAddress;\n        productTracker[_productId].push(_ownershipId);\n\n        emit TransferOwnership(_productId);\n\n        return true;\n    }\n\n    /**\n     * Get Product Provenance\n     *\n     * @param _productId Product Id\n     *\n     * @return uint32[]\n     */\n    function getProvenance(uint32 _productId)\n        external\n        view\n        returns (uint32[] memory)\n    {\n        return productTracker[_productId];\n    }\n\n    /**\n     * Get Ownership\n     *\n     * @param _ownershipId Ownership Id\n     *\n     * @return ownership\n     */\n    function getOwnership(uint32 _ownershipId)\n        external\n        view\n        returns (ownership memory)\n    {\n        return ownerships[_ownershipId];\n    }\n\n    /**\n     * Authenticate a Participant\n     *\n     * @param _userId Participant Id\n     * @param _username Participant Username\n     * @param _userType Participant Type\n     * @param _password Participant Username\n     *\n     * @return bool\n     */\n    function authParticipant(\n        uint32 _userId,\n        string memory _username,\n        string memory _userType,\n        string memory _password\n    ) external view returns (bool) {\n        if (participants[_userId].participantType.compare(_userType)) {\n            if (participants[_userId].username.compare(_username)) {\n                if (participants[_userId].password.compare(_password)) {\n                    return (true);\n                }\n            }\n        }\n        return false;\n    }\n\n    function compare(string calldata _base, string calldata _value)\n        public\n        pure\n        returns (bool)\n    {\n        //coverts strings to bytes 32 and pass it to the keccak256 hash algorithm and compare the results\n        return\n            keccak256(abi.encodePacked(_base)) ==\n            keccak256(abi.encodePacked(_value));\n    }\n}\n",
  "sourcePath": "/Users/abrahamudele/Documents/Solidity/supply-chain/contracts/SupplyChain.sol",
  "compiler": {
    "name": "solc",
    "version": "0.8.11+commit.d7f03943.Emscripten.clang"
  },
  "schemaVersion": "3.4.4",
  "updatedAt": "2022-02-26T23:40:26.624Z",
  "networkType": "ethereum",
  "devdoc": {
    "kind": "dev",
    "methods": {
      "addParticipant(string,string,string,address)": {
        "params": {
          "_participantAddress": "Participant ETH Address",
          "_participantType": "Participant Type",
          "_password": "Participant Username",
          "_username": "Participant Username"
        },
        "returns": {
          "_userId": "_userId"
        }
      },
      "addProduct(uint32,string,string,string,uint32)": {
        "params": {
          "_cost": "Product Cost",
          "_modelNumber": "Product Model Number",
          "_ownerId": "Ownwer's Id",
          "_partNumber": "Product Part Number",
          "_serialNumber": "Product Serial Number"
        },
        "returns": {
          "__productId": "__productId"
        }
      },
      "authParticipant(uint32,string,string,string)": {
        "params": {
          "_password": "Participant Username",
          "_userId": "Participant Id",
          "_userType": "Participant Type",
          "_username": "Participant Username"
        },
        "returns": {
          "_0": "bool"
        }
      },
      "getOwnership(uint32)": {
        "params": {
          "_ownershipId": "Ownership Id"
        },
        "returns": {
          "_0": "ownership"
        }
      },
      "getParticipant(uint32)": {
        "params": {
          "_productId": "Participant Product Id"
        },
        "returns": {
          "_0": "(string memory,address, string memory)"
        }
      },
      "getProduct(uint32)": {
        "params": {
          "_productId": "Product Id"
        },
        "returns": {
          "_0": "product"
        }
      },
      "getProvenance(uint32)": {
        "params": {
          "_productId": "Product Id"
        },
        "returns": {
          "_0": "uint32[]"
        }
      },
      "newOwner(uint32,uint32,uint32)": {
        "params": {
          "_productId": "Product Id",
          "_userId1": "First Participant Id",
          "_userId2": "Second Participant Id"
        },
        "returns": {
          "_0": "bool"
        }
      }
    },
    "version": 1
  },
  "userdoc": {
    "kind": "user",
    "methods": {
      "addParticipant(string,string,string,address)": {
        "notice": "Adds an address as a participant"
      },
      "addProduct(uint32,string,string,string,uint32)": {
        "notice": "Adds a product"
      },
      "authParticipant(uint32,string,string,string)": {
        "notice": "Authenticate a Participant"
      },
      "getOwnership(uint32)": {
        "notice": "Get Ownership"
      },
      "getParticipant(uint32)": {
        "notice": "Get a Participant"
      },
      "getProduct(uint32)": {
        "notice": "Get a Product"
      },
      "getProvenance(uint32)": {
        "notice": "Get Product Provenance"
      },
      "newOwner(uint32,uint32,uint32)": {
        "notice": "Create a new owner of a product (Transfer Ownership)"
      }
    },
    "version": 1
  }
}